:100000000080002099010000C5010000C50100002A
:10001000C5010000C5010000C5010000C5010000C8
:10002000C5010000C5010000C5010000C5010000B8
:10003000C5010000C5010000C5010000C5010000A8
:10004000C5010000C5010000C5010000C501000098
:10005000C5010000C5010000C5010000C501000088
:10006000C5010000C5010000C5010000C501000078
:10007000C5010000C5010000C5010000C501000068
:10008000C5010000C5010000C5010000C501000058
:10009000C5010000C5010000C5010000C501000048
:1000A000C5010000C5010000C5010000C501000038
:1000B000C5010000C5010000C5010000811000005D
:1000C000C5010000C501000010B5054C237833B907
:1000D000044B13B10448AFF300800123237010BD1B
:1000E0007C000020000000009C120000084B10B5AE
:1000F0001BB108480849AFF300800848036803B9FA
:1001000010BD074B002BFBD0BDE81040184700BFC7
:10011000000000009C1200008000002078000020F9
:1001200000000000154B002B08BF134B9D46A3F5A4
:10013000803A00218B460F461348144A121A01F0E8
:1001400077F80F4B002B00D098470E4B002B00D0B8
:1001500098470020002104000D000D48002802D01F
:100160000C48AFF3008001F03DF82000290000F0BA
:10017000B1FF01F023F800BF00000800008000205C
:1001800000000000000000007C000020B000002003
:100190000000000000000000064880470649074AAA
:1001A000074B9A42BEBF51F8040B42F8040BF8E724
:1001B000FFF7B8FF45020000A81200000000002071
:1001C0007C000020FEE700BF00487047005A620232
:1001D0000F4BD3F8943003F00703032B14D0042BF8
:1001E0000FD0022B0AD00B4B1868094BD3F8003103
:1001F000C3F304230133B0FBF3F07047064B1868D8
:10020000F3E7064B1868F0E74FF40040EDE700BF56
:1002100000400E40080000200000002004000020E4
:1002200008B5FFF7D5FF054B054AD3F80831C3F3EE
:1002300008230133B0FBF3F0106008BD00400E400E
:10024000AC000020034AD2F8883043F47003C2F8AF
:100250008830704700ED00E04FF40040704700BF69
:100260004FF47A70704700BF014B1868704700BFA9
:100270000400002038B5FFF7A7FF0B4B0B491C6C9F
:100280000B4D41F671321A645A685A680144A9420A
:1002900094BF4FF08071002122F040720A435A60EF
:1002A0000CB100221A6438BD00000E407F4573FE79
:1002B0007F9FD5000C4970B4C0F3C312D1F89030C1
:1002C0004B6A0A4D0A4C0B4E03320F2A23F03003BF
:1002D00028BF0F2243F0100340EA02704B622E60E9
:1002E000206070BC704700BF00400E4030400E449C
:1002F00030400E46FF0700F0C0F30323013B30B44B
:10030000092B13D8DFE803F0251D121221272A122A
:100310000523144D4FF48034134AD2F84431DB07DF
:10032000C0F3043004D528448000016030BC70471D
:10033000D2F840311C42F6D0D2F840311C42F7D1FD
:10034000F1E70A4DC0F30430EDE7094DFAE7094D36
:10035000F8E7094DF6E7094D0124DDE7084D1024C3
:10036000DAE700BF8007F21000400E400006F210EE
:100370008005F210800AF2100000F2100007F2105F
:100380004007F21000F00F000138052838D8DFE8E8
:1003900000F00B1621372C031C4B1B6F13F0010FC1
:1003A00014BF082007207047184BD3F8943003F08F
:1003B0000703023B022B27D8154AD05C7047134B2A
:1003C000D3F8803003F00703013B032B1AD8114AFE
:1003D000D05C70470D4BD3F8843003F00703013B2A
:1003E000032B0FD80C4AD05C7047084BD3F88830E9
:1003F00003F00703013B032B04D8084AD05C704785
:1004000000207047012070470520704700400E40D3
:100410005C1200006012000064120000681200000C
:1004200010B50446FFF7AEFF1E4B9C422DD01E4B6D
:100430009C4224D01D4B9C421BD0013803282ED84F
:10044000DFE800F00F0B0213194BD3F80031DB018A
:1004500021D5FFF7E5FE800810BDBDE81040FFF78D
:1004600003BFBDE81040FFF7F7BEBDE81040FFF73F
:10047000F7BE0F4BD3F8800000F00700DDE70C4B10
:10048000D3F8880000F00700D7E7094BD3F88400C1
:1004900000F00700D1E7FFF7C3FE400810BD0020C1
:1004A00010BD00BF03001C000500200002001A0060
:1004B00000400E4000F47810B0F5602F08B562D00F
:1004C0000ED9B0F5B01F6CD030D9B0F5E01F18D000
:1004D000B0F5001F4DD0B0F5D01F22D0002008BDD0
:1004E000B0F5802F52D034D9B0F5202F0ED0B0F512
:1004F000402F43D0B0F5002FF0D1BDE80840FFF702
:1005000067BE3048BDE80840FFF78ABFFFF760FECE
:100510002D4BD3F81431C3F304230133B0FBF3F0B4
:1005200008BD2A48BDE80840FFF77ABFB0F5901F24
:100530001FD0B0F5A01FD1D12448FFF771FF224B87
:10054000D3F82021012302F00F029340B0FBF3F017
:1005500008BD0028D1D0B0F5003FBFD1FFF738FE6D
:10056000194BD3F80831C3F308230133B0FBF3F080
:1005700008BD1748BDE80840FFF752BF1548FFF710
:1005800001FF07281AD1144B186808BDFFF720FE99
:100590000D4BD3F80C31C3F308230133B0FBF3F058
:1005A00008BD0848FFF73CFF074BD3F8282101237B
:1005B00002F003029340B0FBF3F008BD08288DD190
:1005C0009BE700BF03001C0000400E4002001A0021
:1005D0000500200006000C000C000020144B1B68D6
:1005E00013F0300F10B408D020291DD030294FF45B
:1005F000800404D019B10F4A03E04FF480044FF493
:1006000040020D49D1F890300B4813409342F9D184
:1006100034B1D0F8A0005DF8044BC0F380207047DF
:1006200001205DF8044B704700244FF40002E8E716
:1006300024400E40FF03E10700400E40F8B50428B7
:1006400024D8DFE800F00C41033C240021BB384BE8
:100650000824384A14661A68002AFCD1F8BD364BC3
:100660004FF400744FF4807609250029F1D000275B
:1006700030490E6619680029FCD03AB12F4C2C4441
:10068000A4002368002BFCD0022822D0F8BD2C4BFC
:10069000202410260525E8E726494B6A13F0300F81
:1006A00031D14B6ADB073DD54C6A214B24F0300435
:1006B00044F010044C62042603250127D8E70126E4
:1006C0003546204B0224D0E71F4B802440260725C7
:1006D000CBE7002FDAD0174A536A13F0010117D184
:1006E000FFF77CFF134DD5F89C70022000210122FA
:1006F000FFF7A4FFC7F30A00FFF7DCFD2E662368AF
:10070000002BFCD0F8BD0A4B042603250027AFE7D9
:1007100020234FF48061C2F8A81019465366FFF7F2
:100720005DFFDFE7024B042603250127A0E700BF9A
:100730000812C84300400E402012C8438004F21043
:100740001012C8430012C8431812C84300F00F002B
:10075000013870B5042832D8DFE800F04543413154
:1007600036000020042401210A46FFF767FFFFF747
:1007700081FD404B40485C67FFF79CFE3F4B404982
:10078000404A414D984294BF00200120086010600B
:10079000FFF746FD3D4B3E491C6C41F671321A6431
:1007A0005A685A680144A94294BF4FF080710021F1
:1007B00022F040720A435A600CB100221A64304A97
:1007C000304B12681B6870BD324C0139082919D8AA
:1007D000DFE801F019352E18181E18181C002E4CD1
:1007E000F3E72E4CF1E7023903290BD801A353F8A4
:1007F00021F000BF630700004D080000530800000F
:100800006308000070BD00232360D8E70423FBE7E2
:10081000FFF706FD194B1A4E1A4D214A984294BF14
:100820000020012001213060032328601160EBE7E4
:10083000012001460246FFF701FF0123E4E7012101
:100840000A460020FFF7FAFE0223DDE70120032419
:1008500089E70B490B4A012302200B600446136011
:1008600081E70749074A01230B601C4613600320F8
:1008700079E700BF00400E40000508000048E8018D
:100880004000C8436020C8437F9FD50000000E4051
:100890007F4573FE88400E4084400E4080400E40ED
:1008A0000016C8432DE9F84F04461120FFF76AFDF2
:1008B000022000210122FFF7C1FE2378207CDFF80F
:1008C000BCB0284DA688B4F806C02749DFF8B0A010
:1008D000264ADFF8B080DFF8B090DFF8B0E0244FB0
:1008E000002B14BF4FF480730023022814BF184656
:1008F00043F0010040F20113CBF800302860E37AA6
:100900001C484FF0070BCAF800B00B60617AC8F8BA
:10091000009041EAC6211160237AA17A164E03FAAB
:100920000BF203330F2B42EACC2242EA010228BF2A
:100930000F2342EA03736FF07F62CEF800203B6022
:10094000617B237BE27BA47B090305F17E4541EAC1
:1009500003431035134343EA04132E600360BDE8DC
:10096000F88F00BF24400E4628400E462C400E460D
:1009700030400E4634400E46FFF00F0024400E4437
:1009800028400E442C400E447FF80F0030400E44A7
:10099000C17843780278F0B4890007794479074D2B
:1009A000074E807841EA4303134343EA471304F0B8
:1009B0003F026A602B603060F0BC704700E001408D
:1009C00080013C4230B4194C194BE16C1A88E06C40
:1009D000184DC1F303210131283202EB620201EB11
:1009E0008103B2FBF3F3013B072B20F0EE6028BF3D
:1009F000072340F4801242EA0363B5F90020E36460
:100A0000002A10DB206D28324B0002EB620203EB60
:100A10005103B2FBF3F3072B20F0700028BF07232C
:100A200040EA0313236530BC704700BF00300E401E
:100A3000A20000209E000020084B1B6C03F0030363
:100A4000012B03D0064B03221A707047054A136826
:100A5000DB03FCD5024B03221A70704700300E40B6
:100A6000A80000207C300E40054A064BD16C19606E
:100A7000D36C23F47F4343F4EE43D364FFF7A2BF68
:100A800000300E40A4000020054A08B5054BD2F8FE
:100A900090201A601120FFF775FC034B187008BDF9
:100AA00000400E40980000209C00002040B3012828
:100AB00000D07047134A144838B545F60E03134D5D
:100AC000D2F88041C2F880312B6840F255111940AC
:100AD00011660178052904F0010403F0010305D033
:100AE0001120FFF733FE2B6803F0010313B9054B08
:100AF00002221A661CB1034B0022C3F8802138BDC4
:100B0000FFF7C2BF00400E409C000020980000206C
:100B100010B50446FFF7B8FF174BD3F88021D20772
:100B200048BF002245F60E004FF42071C3F8800143
:100B3000196648BFC3F88021104A136943F00403C3
:100B40001361FFF791FF0E4B1B78013B012B10D96E
:100B500030BF0C4A0C4B1268DA64FFF733FF1CB944
:100B6000BDE81040FFF75CBB0120BDE81040FFF777
:100B70009DBFFFF761FFEBE700400E4000ED00E096
:100B8000A8000020A400002000300E400F4A116C85
:100B900001F00301814212D0936FDB07FCD4021CE9
:100BA0000B4B18BF01221A6051B108498B6F074ADD
:100BB000DB07FBD4136C23F0030318431064704766
:100BC0000128F2D1034B02221A70EEE700300E40EA
:100BD000B40AC643A8000020A0F5E163B3F5966F00
:100BE0003ED8B0F5E16F94BF4FF0000C4FF0010C10
:100BF0002DE9F047BCF1000F26D1684BD3F86851BE
:100C00004FF41679C5F307284FF49663EDB2644CA0
:100C1000E46CC4F3017E4CEA0E2440F20116B442A7
:100C200068D0B4F5817F1DD340F20126B4425DD077
:100C300042D9B4F5407F55D040F20136B4425DD17F
:100C4000564CD4F8787116E0544BD3F868514FF4F1
:100C500096694FEA15684FF4E163C5F30745D6E797
:100C600000207047012C36D04DD3B4F5807F45D19C
:100C70004A4CD4F86C714FEA176AC7F30747C31A96
:100C8000C7EB0A0606FB03F6C5EB080404FB03F3F7
:100C9000B3FBF9F32B44984521D39D421FD8B6FBF3
:100CA000F9F63E4456451AD8BE4218D37ABB0029FD
:100CB00039D10120BDE8F087B4F5007F1ED1374C53
:100CC000D4F87071C7F3072AFFB2C31AC7EB0A063C
:100CD00006FB03F6D8E7314CD4F87471F2E7002034
:100CE000BDE8F0872D4CD4F87071C4E72B4CD4F8D4
:100CF0007871E7E7294CD4F87471BCE70026C31A71
:100D0000B2463746C0E7254CD4F86C71DAE7244880
:100D1000C26D22F4FE4222F0020242EA032343EAB9
:100D20004C03C365C3E71D4A136DDBB2032B20D808
:100D3000D2F87C31BCF1000F28D0C3F307231B038A
:100D400013F4702FCBD11649CA6E22F470421343AC
:100D5000CB664B6E23F4FF73E72E23F0010328BF0D
:100D6000E7264CEA030C4CEA46064E660120BDE835
:100D7000F0875FFA8EFEBEF1020FD2F8803109D003
:100D8000BEF1030F04D0BEF1010FD6D0DBB2D6E71F
:100D90001B0ED4E7C3F30743D1E700BFB081E00FD8
:100DA00000300E40234B1A6FD96C11F0010F02F086
:100DB000070212D0012A22D913282DD9143813285A
:100DC0008CBF4FF47F414FF4EE411A4AD36C23F4A9
:100DD0007F430B43D364FFF7F5BDD96C11F0010FCE
:100DE00005D1012A1BD9DB6C6FF0FF01EDE7DB6C4D
:100DF000DB0701D5012A08D96FF0FF01E5E7DA6CBE
:100E0000D2070CD5DB6CDB07F6D527288CBF4FF457
:100E10007F414FF4EE41D8E74FF44C51D5E7092814
:100E2000FAD90A3809288CBF4FF47F414FF4EE41BC
:100E3000CBE700BF00300E40054A064B06491B6851
:100E4000136F23F00703184310670888FFF7AABF42
:100E500000300E408009C643A0000020534B022200
:100E6000F0B59A639B6B03F00F03934283B003D0FA
:100E70000025284603B0F0BD4D4BD3F86C3101334B
:100E800015D04C4A4C4B146819680C6094689968EA
:100E90000C60146919690C60946999690C60146A92
:100EA000196A283228330C6012681B681A60C388DC
:100EB0004A2B05D9B3F5FA7F6ED24FF0805100E08E
:100EC000002104463948B4F90C60C26C3B4D22F055
:100ED000405323F00103002EA8BF43F001030B434E
:100EE000C364C36E43F08073C3662868002837D09C
:100EF0000420FFF7A1FF2D4D2B6E23F0C0432B667E
:100F0000EB6C43F00603EB6401A800F06DF89DF86C
:100F10000530012B27D02A4B2A492B4EA088258942
:100F2000A2891A8030800D80FFF73CFFA37B002B45
:100F30002ED0012B02D11D4B244A9A6501210A466D
:100F40006088FFF749FE0546002891D0A37A204A21
:100F50006078003318BF01231360FFF717FE88E79E
:100F6000FFF76AFFC7E79DF80420022AD3D8194A81
:100F700011780029CFD1184F18483E68184946F01B
:100F800001063E602E6E3040014329661370C2E7B1
:100F9000064B144A9A65D1E740F6C3118B4294BFC1
:100FA0004FF000514FF040518BE700BF00300E4032
:100FB000B081E00F3C80E00F3880E00F8009C6432D
:100FC0009E000020A2000020A0000020372110B7C2
:100FD0009407C643A800002044300E40000F0EF0D6
:100FE000B4C0400B774020570B4A5169136901F098
:100FF0000F01C3F3811343EA81038370136903F084
:101000003F0343709169D36901F0F002C3F3031306
:1010100013430370704700BFD0FF0FE02DE9F0418C
:10102000134C144FE369002623F0010382B0E361FF
:101030008046012110483E60FFF75EF90F4B012505
:101040001868A5610223009068468DF803308DF87A
:1010500005808DF804608DF800608DF80250FFF770
:1010600097FCE3692B43E3613D6002B0BDE8F0818A
:1010700000E0014000003C42006204006C120000ED
:10108000024A136903F001039361704700E00140D5
:1010900008B511200421FFF759FB0320002101228C
:1010A000FFF7CCFA002001460122FFF7C7FA012022
:1010B00002460021FFF7C2FA042000210122FFF7B7
:1010C000BDFA034A136923F00403136130BF08BD5E
:1010D00000ED00E070B5324C324E6168A268E36802
:1010E00020688AB001AD0FC554F8100F6168A2687E
:1010F000E368258A05AC0FC42580F46C6846240E8D
:10110000FFF772FF8E2C3ED82749284AD1F8B0004D
:10111000274C4FF0501340F00405C1F8B050236045
:10112000136013631366C2F89030C2F8C030C1F880
:10113000B0001D4AD36A23F07F0343F02003D3623B
:101140009DF80130012B24D0012301A88DF8053032
:10115000184CFFF783FE05A8FFF7A4FB4FF00043F0
:101160001D4623601E46C4F880610B20FFF756FF22
:101170000020FFF7CDFC0020C4F88051FFF74EFFA0
:10118000FFF786FFEFE78F2CD3D09DF80130012BBE
:10119000DAD1094A136843F004031360D4E700BFAF
:1011A00074120000B081E00F00400E4030A00040FB
:1011B00000A0004000E100E064310E4008B5074B9C
:1011C000044613B10021AFF30080054B1868836A11
:1011D00003B19847204600F033F800BF000000003C
:1011E0009812000070B50E4B0E4CE41AA4100025A6
:1011F0001E46A54204D056F8253098470135F8E739
:1012000000F020F8084C094BE41AA41000251E46F3
:10121000A54204D056F8253098470135F8E770BD4F
:10122000700000207000002074000020700000207A
:1012300002440346934202D003F8011BFAE77047C9
:10124000FEE700BFF8B500BFF8BC08BC9E4670477B
:10125000F8B500BFF8BC08BC9E4670470403020006
:10126000030201090302060903020109010000004B
:10127000002000000001080705000A00C800200047
:10128000FFFF000001000000A00055010A20070632
:10129000020A0407000043001000002000000000C4
:0812A00084EEFF7F0100000055
:1012A800005A620200800000C0EA2101C0EA210160
:1012B8000000000000000000000000000000000026
:1012C8000000000000000000000000000000000016
:1012D800961200000000000000000000000000005E
:1012E80000000000000000000000000000000000F6
:1012F80000000000000000000000000000000000E6
:1013080000000000000000000000000000000000D5
:0C131800ED000000C90000000000000013
:04000003000001995F
:00000001FF
