:100000000080002099010000C5010000C50100002A
:10001000C5010000C5010000C5010000C5010000C8
:10002000C5010000C5010000C5010000C5010000B8
:10003000C5010000C5010000C5010000C5010000A8
:10004000C5010000C5010000C5010000C501000098
:10005000C5010000C5010000C5010000C501000088
:10006000C501000005260000C5010000C501000013
:10007000C5010000C5010000C5010000C501000068
:10008000C501000011260000C5010000C5010000E7
:10009000C5010000C50100001D260000C5010000CB
:1000A000C5010000C5010000C5010000C501000038
:1000B000C5010000C5010000C5010000C501000028
:1000C000C5010000C501000010B5054C237833B907
:1000D000044B13B10448AFF300800123237010BD1B
:1000E0007C00002000000000002B0000084B10B531
:1000F0001BB108480849AFF300800848036803B9FA
:1001000010BD074B002BFBD0BDE81040184700BFC7
:1001100000000000002B000080000020780000207C
:1001200000000000154B002B08BF134B9D46A3F5A4
:10013000803A00218B460F461348144A121A02F0E7
:10014000B3FB0F4B002B00D098470E4B002B00D079
:1001500098470020002104000D000D48002802D01F
:100160000C48AFF3008002F079FB2000290002F078
:10017000D3FA02F05FFB00BF0000080000800020FF
:1001800000000000000000007C000020B000002003
:100190000000000000000000064880470649074AAA
:1001A000074B9A42BEBF51F8040B42F8040BF8E724
:1001B000FFF7B8FF910200000C2B000000000020A8
:1001C0007C000020FEE700BF80B582B000AF00F0E9
:1001D00027F878600A4BD3F808210A4B13401B0A12
:1001E0003B603B6801337A68B2FBF3F37B60064AFD
:1001F0007B6813607B6818460837BD4680BD00BF2A
:1002000000400E4000FF0100AC00002080B400AFB1
:10021000024B1846BD465DF8047B7047005A6202E7
:1002200080B483B000AF164BD3F8943003F00703CB
:10023000032B08D0042B02D0022B08D00BE0114B6B
:100240001B687B600BE04FF400437B6007E00E4BC4
:100250001B687B6003E00D4B1B687B6000BF084B95
:10026000D3F8003103F4F8531B0A01337A68B2FB68
:10027000F3F318460C37BD465DF8047B704700BFAA
:1002800000400E4004000020000000200800002074
:1002900080B400AF054A054BD3F8883043F47003AF
:1002A000C2F88830BD465DF8047B704700ED00E081
:1002B00080B400AF4FF400431846BD465DF8047BA0
:1002C000704700BF80B400AF4FF47A731846BD4644
:1002D0005DF8047B704700BF80B400AF034B1B6820
:1002E0001846BD465DF8047B704700BF040000203F
:1002F00080B483B000AF7860FEE700BF80B483B005
:1003000000AF78603960FEE780B487B000AFF86076
:10031000B9607A60FB6803F10473DA00BB681344C8
:100320009B007B617B697A681A601C37BD465DF86B
:10033000047B704780B485B000AF786039607B681B
:1003400003F10473DA003B6813449B00FB60FB6815
:100350001B6818461437BD465DF8047B704700BF24
:1003600080B485B000AF786039607B6803F1C0630A
:10037000FB60FB683A681A601437BD465DF8047B81
:10038000704700BF80B485B000AF786039607B688B
:1003900003F18063FB60FB683A681A601437BD465E
:1003A0005DF8047B704700BF80B584B000AFF86093
:1003B000B9607A60F868B968FFF7E4FFF8687968AF
:1003C000FFF7CEFF1037BD4680BD00BF80B483B0BD
:1003D00000AF786039607B681A683B681340184644
:1003E0000C37BD465DF8047B704700BF80B483B016
:1003F00000AF78607B68012202FA03F318460C37DD
:10040000BD465DF8047B704780B584B000AF78606E
:100410007B68B3F5004F04D30E484FF4B861FFF783
:100420006DFF7B680133B3FA83F3C3F11F03FB60F5
:10043000F868FFF7DBFF03465A1E7B689A4204D038
:10044000044840F2C651FFF759FFFB6818461037C1
:10045000BD4680BDD028000080B584B000AF786074
:1004600039607A683B689A428CBF01230023DBB273
:10047000FB6006481021FA68FFF746FF0448182180
:10048000FA68FFF741FF1037BD4680BD00400E40BF
:1004900000410E4080B582B000AF0B481021FFF73D
:1004A00049FF786009481821FFF744FF38607A68EF
:1004B0003B689A4203D00648DC21FFF71FFF7B68A8
:1004C00018460837BD4680BD00400E4000410E4032
:1004D0003429000080B483B000AF054B1B687B60FB
:1004E0007B6818460C37BD465DF8047B704700BF3B
:1004F0000C00002080B582B000AF0F4800F0ACFBCC
:100500000346FB70FB78072B05D0082B07D1FFF7BC
:1005100087FE78600BE0FFF7DDFF786007E00748B3
:1005200040F24711FFF7EAFE00237B6000BF7B68C3
:1005300018460837BD4680BD06000C00342900006F
:1005400080B485B000AF7860184B1B6C002B14BFD3
:1005500001230023FB72154B41F671321A64134BD1
:100560005B6803F04073FB607B68114A934207D8D5
:100570007B68104A934203D94FF08073FB6001E01F
:100580000023FB600949094B5B6823F04072FB685C
:1005900013434B60FB7A002B02D0044B00221A64F9
:1005A0001437BD465DF8047B704700BF00000E4065
:1005B000005A620280BA8C0180B500AFFFF726FEB8
:1005C00003461846FFF7BCFF80BD00BF80B487B06C
:1005D00000AF78600F237B617B6803333B617B69ED
:1005E000FB60FA683B69934228BF1346BB60BB6857
:1005F0001B07BB60BB6818461C37BD465DF8047B13
:10060000704700BF80B584B000AF78600023BB6046
:100610007B68384A93420BD0374A934208D0374A16
:10062000934205D036484FF4F371FFF767FE00E0C0
:1006300000BF786800F010FB0346FB607B682D4A22
:1006400093420CD02C4A934210D02C4A934214D19E
:100650002C4BD3F8803003F00703FB6013E0294BE9
:10066000D3F8843003F00703FB600CE0254BD3F88C
:10067000883003F00703FB6005E021484FF4047164
:10068000FFF73CFE00BFFB68042B2ED801A252F8F6
:1006900023F000BFE5060000A9060000B106000037
:1006A000C1060000B9060000FFF702FEB8601CE0BA
:1006B000FFF712FEB86018E0FFF704FEB86014E020
:1006C000104BD3F8003103F08073002B04D0FFF7F8
:1006D0007BFD03469B0803E0FFF776FD03465B08BE
:1006E000BB6002E00023BB6000BFBB681846103748
:1006F000BD4680BD03001C000500200002001A005A
:100700003429000000400E4080B483B000AF786010
:100710000A4BD3F8443103F00103002B00D007E06B
:1007200000BF064BD3F840217B681340002BF8D163
:100730000C37BD465DF8047B704700BF00400E409B
:1007400080B586B000AF78600B46FB7000233B613C
:100750007B681B0A03F00F03013B092B32D801A26F
:1007600052F823F08D07000099070000C50700002C
:10077000C5070000930700009F070000A9070000BD
:10078000C5070000B3070000BF0700001A4B7B61DC
:100790001EE01A4B7B611BE0194B7B6118E0194B83
:1007A0007B6101233B6113E0174B7B6110233B61AD
:1007B0000EE0164B7B614FF480333B6108E0144B35
:1007C0007B6105E0134840F2F251FFF797FD10E01E
:1007D0007B681B0B03F01F03FB603B69002B02D0FF
:1007E0003869FFF791FFFB787869F9681A46FFF7D7
:1007F0008BFD1837BD4680BD00400E40B0400E4016
:10080000C0400E40E0400E40E8400E40F0400E4038
:1008100050410E403429000080B584B000AF7860AC
:100820007B6803F47813B3F5602F00F0A280B3F572
:10083000602F16D8B3F5802F2ED0B3F5802F05D8B2
:10084000002B25D0B3F5003F39D096E0B3F5202F2B
:1008500044D0B3F5402F00F08880B3F5002F2AD0A4
:100860008BE0B3F5B01F69D0B3F5B01F06D8B3F570
:10087000901F47D0B3F5A01F49D07EE0B3F5E01F2D
:1008800057D0B3F5001F6BD0B3F5D01F35D074E04F
:10089000FFF7C6FCF86078E0FFF7C2FCF8603D4B5C
:1008A000D3F80C213C4B13401B0A0133FA68B2FB0E
:1008B000F3F3FB6069E0FFF7B3FCF86065E0FFF776
:1008C000AFFCF860334BD3F80821334B13401B0ABD
:1008D0000133FA68B2FBF3F3FB6056E0FFF7A0FCCC
:1008E000F8602C4BD3F8143103F4F8531B0A01338E
:1008F000FA68B2FBF3F3FB6047E02848FFF782FE9B
:10090000F86042E02648FFF77DFEF8603DE02348AE
:10091000FFF778FEF8601F4BD3F8203103F00F0388
:100920001846FFF763FD0246FB68B3FBF2F3FB607A
:100930002BE01C48FFF766FEF86026E01948FFF739
:1009400061FEF860134BD3F8283103F00303184617
:10095000FFF74CFD0246FB68B3FBF2F3FB6014E0CB
:100960000F48FFF74FFEF8600FE0FFF7C3FDF86098
:100970000BE0FFF7AFFDF86007E00B4840F2BC6109
:10098000FFF7BCFC0023FB6000BFFB681846103774
:10099000BD4680BD00400E4000FF010002001A006D
:1009A0000500200003001C003429000080B584B03D
:1009B00000AF786039607B681B0903F00F03FB60B0
:1009C000FB68013B072B00F22D8101A252F823F0B6
:1009D000F1090000410A0000690A0000910A0000C4
:1009E000BF0A0000150B0000970B0000E10B000090
:1009F0003B681F2B04D9904840F27171FFF77EFCD1
:100A0000FFF7DAFD8D488E49FFF726FD8D498D4BA6
:100A1000D3F8003123F4F8523B681B021343C1F8AA
:100A20000031FFF7D1FBB860B868FFF789FD864851
:100A3000FFF7F2FE034618468149FFF70DFDF7E088
:100A40003B681F2B04D97C4840F28271FFF756FCAB
:100A50007C497C4BD3F8143123F4F8523B681B02D9
:100A60001343C1F81431E3E03B68012B04D9724809
:100A700040F28971FFF742FC7249724BD3F80031A2
:100A800023F080723B681B061343C1F80031CFE0AE
:100A90003B68B3F5007F04D3674840F29271FFF7DB
:100AA0002DFC6849674BD3F80C3123F4FF3323F452
:100AB00080733A6812021343C1F80C31B8E03B6806
:100AC000B3F5007F04D35C4840F29971FFF716FC40
:100AD000FFF772FD59485A49FFF7BEFC5949594B77
:100AE000D3F8083123F4FF3323F480733A681202F9
:100AF0001343C1F80831FFF767FBB860B868FFF728
:100B00001FFD5148FFF788FE034618464C49FFF782
:100B1000A3FC8DE07B684D4A934203D04C4A93423C
:100B200017D031E03B68002B04D0434840F2BF713E
:100B3000FFF7E4FB4FF48020FFF7E6FD4149414B0E
:100B4000D3F8303123F00F023B681343C1F8303142
:100B500020E03B68B3F5004F04D9374840F2D77125
:100B6000FFF7CCFB3868FFF74FFC38600420FFF735
:100B7000CBFD3449334BD3F8203123F00F023B68CF
:100B80001343C1F8203105E02B4840F2F471FFF720
:100B9000B5FB00BF4CE07B682E4A934219D13B68FD
:100BA000082B04D9244840F2FE71FFF7A7FB3868F0
:100BB000FFF72AFC38604020FFF7A6FD2149214BB2
:100BC000D3F8283123F003023B681343C1F82831DE
:100BD00005E0194840F62B01FFF790FB00BF27E026
:100BE0007B681A4A934216D13B68002B04D0124806
:100BF00040F63501FFF782FB4FF48020FFF784FDBC
:100C00001049104BD3F8303123F00F023B681343E7
:100C1000C1F8303105E008484FF40461FFF76EFB7E
:100C200000BF05E0044840F64601FFF767FB00BF40
:100C30001037BD4680BD00BF342900000148E801DF
:100C40000048E80100400E4000050800800912003D
:100C5000600614007007160080B584B000AF78609D
:100C60000123FB737B6803F00F03BB60BB68013B90
:100C7000052B00F28B8001A252F823F0950C0000A6
:100C8000C70C0000F70C00008D0D00003D0D0000AA
:100C90006D0D0000444BD3F8943003F00703032B91
:100CA00007D0042B02D0022B06D008E00223FB73EE
:100CB00008E00323FB7305E00423FB7302E0052334
:100CC000FB7300BF6AE0384BD3F8803003F00703B2
:100CD000022B06D0042B07D0012B08D10323FB7372
:100CE00008E00223FB7305E00923FB7302E0012304
:100CF000FB7300BF52E02C4BD3F8843003F00703A2
:100D0000013B032B16D801A252F823F01D0D000061
:100D1000230D00002F0D0000290D00000323FB739D
:100D20000BE00223FB7308E00923FB7305E00623B5
:100D3000FB7302E00123FB7300BF2FE01A4BD3F8D3
:100D4000883003F00703022B06D0042B07D0012BB9
:100D500008D10323FB7308E00223FB7305E009239A
:100D6000FB7302E00123FB7300BF17E00E4B1B6F08
:100D700003F00103002B05D0012B00D00EE0082367
:100D8000FB7302E00723FB7300BF07E0074840F650
:100D9000A711FFF7B3FA0023FB7300BFFB7B1846D4
:100DA0001037BD4680BD00BF00400E403429000012
:100DB00080B588B000AF78600B46FB700323FB6101
:100DC0000323FB7600233B617B6803F00F03FB608A
:100DD000FB68013B042B00F2D48001A252F823F0FF
:100DE000F50D0000A90E0000E50E0000830F0000C5
:100DF000C70E0000FB78023B072B35D801A252F842
:100E000023F000BF250E00002F0E0000390E000059
:100E10004B0E0000690E0000690E0000690E000014
:100E20005D0E00000423FB610023FB7622E0032318
:100E3000FB610123FB761DE00223FB610223FB76AD
:100E400055485649FFF708FB14E00123FB610323D3
:100E5000FB7651485149FFF7FFFA0BE0504840F646
:100E60004921FFF74BFA94E04D4840F64E21FFF739
:100E700045FA8EE0FB7E18460121012200F044FA7B
:100E8000FFF79AFB474AFB6953674748FFF7C4FCE3
:100E9000034618464149FFF7DFFAFFF795F9B860B6
:100EA000B868FFF74DFB72E03B69002B01D03B694E
:100EB00000E03E4B3B61FB78062B04D1384840F6FE
:100EC0008221FFF71BFA3B69002B01D03B6900E050
:100ED000374B3B61FB78062B04D1314840F68A2121
:100EE000FFF70CFA3B69002B01D03B6900E0314B66
:100EF0003B61FB78013B082B39D801A252F823F063
:100F0000250F00002B0F00003B0F00006F0F0000AB
:100F10006F0F00004B0F00006F0F00006F0F0000FD
:100F2000690F000000237B6127E0002001210122DE
:100F300000F0EAF902237B611FE001200121012278
:100F400000F0E2F901237B6117E0FFF73DF903466A
:100F500018461249FFF780FA174800210122FFF7CF
:100F6000D3F903237B6108E004237B6105E00C488F
:100F700040F6B721FFF7C2F90BE03B697A691A60C6
:100F800005E0074840F69231FFF7B8F900BFFFF7D8
:100F900081FA2037BD4680BD0148E8010048E801DC
:100FA0003429000000400E400005080080400E403B
:100FB00088400E4084400E40B0400E4080B483B064
:100FC00000AF78607B68294A93422FD0274A93422A
:100FD00010D8274A934221D0254A934203D8254A64
:100FE00093421BD03AE0244A934217D0234A9342BB
:100FF00018D033E0224A934224D0214A934206D8A3
:10100000204A934216D0204A934217D026E01F4A26
:1010100093421BD01E4A93421CD01FE01D4BD3F8B5
:1010200080301CE01B4BD3F88C3018E0194BD3F800
:10103000983014E0174BD3F89C3010E0154BD3F8E0
:10104000A0300CE0134BD3F8A83008E0114BD3F8D4
:10105000AC3004E00F4BD3F8B03000E0002318466A
:101060000C37BD465DF8047B704700BF405DC6008D
:1010700080841E0040420F0000093D00C0CF6A007E
:1010800080BA8C010024F400C0EA21010048E80184
:1010900080D54302B081E00F80B584B000AF7860A6
:1010A0007868FFF78BFFF860FB68002B03D0FB68C4
:1010B000B3F1FF3F04D1404840F68141FFF71EF9EC
:1010C0003E4A7B6813601120FFF7C6FD0346052BDF
:1010D00001D1FFF771FA00BF39481821FFF72AF94B
:1010E0000346002BF8D1FB68B3F1FF3F04D132482F
:1010F00040F68F41FFF702F97B68324A93420DD0E8
:10110000314A934211D0314A934200D012E0FB6839
:1011100023F0C06343F08063FB600BE0FB6823F0C7
:10112000C06343F00073FB6004E0FB6823F0C0631E
:10113000FB6000BF1120FFF78FFD0346052B03D195
:1011400078682349FFF788F9224AFB681361112068
:10115000FFF782FD0346052B22D1FFF735F8B86073
:10116000BA687B689A4204D9134840F6B741FFF742
:10117000C5F8124B1B68BA689A4204D90E4840F66B
:10118000B841FFF7BBF80D4B1B687A689A4204D050
:10119000094840F6B941FFF7B1F8B868FFF7D0F950
:1011A0000D48FFF739FB034618460949FFF754F984
:1011B0001037BD4680BD00BF342900000800002064
:1011C00040410E4080841E0000093D0040420F0057
:1011D0000048E80100400E400005080090B585B0C9
:1011E00000AF78601120FFF737FD0346042B04D1D0
:1011F0003D4840F63651FFF781F8022000210122D8
:1012000000F082F87B685B78002B07D17B689B78C5
:10121000002B03D17B68DB78002B04D0324840F6EA
:101220004551FFF76BF80023FB607B681B7C012BAB
:1012300004D12D4840F64A51FFF760F87B681B7CCB
:10124000022B01D10123FB607B681B78002B02D0AD
:101250004FF4807200E00022FB681343234840F201
:1012600001111A46FFF7A0F87B68DB7A20480721B6
:101270001A46FFF799F87B689B88DB027A68527AF6
:1012800013431C481C491A46FFF78EF87B68DB881D
:10129000DA027B681B7ADB0113437A68927A134384
:1012A0001C467B681B7A1846FFF790F903462343D8
:1012B00012486FF07F611A46FFF776F87B681B7B58
:1012C0001A047B685B7B1B031A437B689B7B1B01B7
:1012D00013437A68D27B134309480A491A46FFF739
:1012E00063F81437BD4690BD3429000024400E40F9
:1012F00028400E402C400E407FF80F0030400E403A
:1013000034400E40FFF00F0080B588B000AF0346B8
:10131000FB710B46BB7113467B71FB79042B3CD8E8
:1013200001A252F823F000BF8513000073130000E0
:101330004F1300003D1300006113000001237B6187
:1013400002233B610123FB610023BB612BE00423EB
:101350007B6108233B610323FB610223BB6122E025
:1013600010237B6120233B610523FB610423BB61C8
:1013700019E040237B6180233B610723FB61062347
:10138000BB6110E04FF480737B614FF400733B61ED
:101390000923FB610823BB6105E03B4840F65E6121
:1013A000FEF7ACFF6DE0BB79002B5FD00023FB7331
:1013B000FB79022B15D1354B5B6A03F03003002B10
:1013C0000FD10123FB73314B5B6A03F00103002B48
:1013D00007D02E4A2D4B5B6A23F0300343F01003F5
:1013E00053622A4A7B69136600BF2948B969FEF730
:1013F000A1FF0346002BF8D07B79002B35D000BF2E
:101400002348F969FEF796FF0346002BF8D0FB79D5
:10141000022B2AD1FB7B002B27D01C4B5B6A03F0ED
:101420000103002B05D002202021012200F070F9D9
:1014300003E00220002100F013F9022000F02AF856
:10144000B860022000210122FFF75EFF0220B96888
:1014500000F05EF80D4A7B69136600BF0C48F9691D
:10146000FEF768FF0346002BF8D00AE0074A3B6905
:10147000136600BF0648B969FEF75CFF0346002B00
:10148000F8D12037BD4680BD3429000000400E4011
:1014900090400E4080B584B000AF0346FB71FB79ED
:1014A000013B032B23D801A252F823F0BD14000006
:1014B000E1140000C9140000D5140000124B1B6A8F
:1014C000C3F30803FB601AE00F4B1B6903F07F03B3
:1014D000FB6014E00C4B9B6903F07F03FB600EE0A4
:1014E000094BD3F89C30C3F30A03FB6007E00748BD
:1014F00040F6D961FEF702FF0023FB6000BFFB68E6
:1015000018461037BD4680BD00400E40342900000B
:1015100080B584B000AF03463960FB71FB79013BB5
:10152000032B00F28A8001A252F823F03D1500003F
:10153000F11500007D150000B71500003B68B3F5FC
:10154000007F04D341484FF47061FEF7D7FE3B683B
:10155000C3F308033B6000BF3D481A21FEF7EAFED3
:101560000346002BF8D13B493A4B1B6A23F4FF7327
:1015700023F001033A6813430B6264E03B687F2B5E
:1015800004D9324840F60B71FEF7B8FE3B6803F011
:101590007F033B6000BF2E481821FEF7CBFE0346B9
:1015A000002BF8D12B492B4B1B6923F07F023B68A2
:1015B00013430B6147E03B687F2B04D9234840F677
:1015C0001871FEF79BFE3B6803F07F033B6000BF92
:1015D0001F481921FEF7AEFE0346002BF8D11D4926
:1015E0001C4B9B6923F07F023B6813438B612AE00D
:1015F000184BD3F8903003F00403002B04D01348A9
:1016000040F62771FEF77AFE124A124B5B6A23F00E
:10161000300343F0100353623B6803F4F063DB09CB
:101620001846FEF7D3FFF8603A68FB6813430A4890
:101630000A491A46FEF7B8FE05E0044840F63A713A
:10164000FEF75CFE00BF1037BD4680BD34290000A8
:1016500040410E4000400E4030400E40FF0700F079
:1016600080B584B000AF03460A46FB711346BB71D8
:10167000FB79022B04D0224840F65171FEF73EFE62
:1016800020483021FEF7A2FE0346002B03D14FF481
:101690004003FB6016E0BB79202B04D0302B06D032
:1016A000002B04D007E04FF40003FB600AE04FF486
:1016B0004003FB6006E0144BFB60114840F66D717F
:1016C000FEF71CFE00BF114BD3F89020FB681A40B8
:1016D000FB689A42F7D1FB6803F48003002B0AD021
:1016E0000A4BD3F8A03003F48063002B14BF01230E
:1016F0000023DBB200E0012318461037BD4680BD51
:101700003429000024400E40FF03E10700400E4052
:1017100080B582B000AF0346FB710B46BB71134628
:101720007B71FB79022B15D1BB79002B07D00E4BB7
:101730004FF48062C3F8A8200B4ABB7953667B79CB
:10174000002B07D0FA79BB7910461946FFF788FFBE
:10175000034605E0054840F6A171FEF7CFFD0123E1
:1017600018460837BD4680BD00400E4034290000B1
:1017700080B487B000AFF860B9607A60FB6803F1AD
:101780000473DA00BB6813449B007B617B697A6851
:101790001A601C37BD465DF8047B704780B485B085
:1017A00000AF786039607B6803F10473DA003B684E
:1017B00013449B00FB60FB681B6818461437BD464A
:1017C0005DF8047B704700BF80B400AF034B1B6D16
:1017D000DBB21846BD465DF8047B7047B081E00F70
:1017E00080B588B000AF2A4BFB612A4BBB612A4B06
:1017F0007B612A4B3B612A4BFB602A4BBB602A4B27
:10180000D3F86C31B3F1FF3F37D0FB695B687B6085
:10181000FB691B683B603B687A681A60BB695B6860
:101820007B60BB691B683B603B687A681A607B69B8
:101830005B687B607B691B683B603B687A681A6009
:101840003B695B687B603B691B683B603B687A680F
:101850001A60FB685B687B60FB681B683B603B68E9
:101860007A681A60BB685B687B60BB681B683B601A
:101870003B687A681A60012305E00C4840F2425147
:10188000FEF73CFD002318462037BD4680BD00BF53
:101890003880E00F4080E00F4880E00F5080E00F7C
:1018A0005880E00F6080E00FB081E00F98290000C1
:1018B00080B584B000AF244A234BDB6E43F08073C5
:1018C000D36622480021FFF769FFF860FB68002B10
:1018D00003D0042000F0D2FC02E0002000F0CEFC97
:1018E000194A194B1B6E23F0C0431366164A164B58
:1018F000DB6C43F00603D3643B1D184600F0EEFC9E
:101900007B79012B1DD13B79022B1AD8104B1B7808
:10191000002B16D10F4A0F4B1B6843F001031360D5
:10192000094B1B6EBB60BA680B4B1340BB60BA68B7
:101930000A4B1343BB60044ABB681366044B012285
:101940001A701037BD4680BD00300E404C300E403E
:101950009800002044300E40000F0EF0B4C0400B41
:1019600080B58AB000AF01237B627B6A1B053B62B6
:10197000414BDB6C03F470631B0AFB613F4B1B881C
:1019800003F128023D4B1B882833D90F0B445B1011
:1019900013441946FB695A1C13469B001344B1FBC0
:1019A000F3F3013BBB61BB697B6107233B613A6990
:1019B0007B69934228BF1346BB61BB691B06BB61B1
:1019C000BB6923F0E063002B04D02D4840F2BB51EB
:1019D000FEF794FC3B6A23F4E003002B04D0284874
:1019E00040F2BC51FEF78AFC2348234BDB6C23F00A
:1019F000EE62B9693B6A0B431343C364214B1B88F6
:101A00001BB2002B35DB1F4B1B88FB81FB8903F1CD
:101A10002802FB892833D90F0B445B101344194665
:101A2000FB6901335A00FB6901335B081344B1FBC6
:101A3000F3F3BB60BB687B6007233B603A687B685D
:101A4000934228BF1346BB60BB681B01BB60BB68E9
:101A500023F07003002B04D0094840F2D551FEF763
:101A60004DFC0549044B1B6D23F07002BB6813430A
:101A70000B652837BD4680BD00300E409A0000201F
:101A8000982900009E00002080B483B000AF7860E9
:101A90000B467B807B689AB2044B1A80044A7B8891
:101AA00013800C37BD465DF8047B70479A00002018
:101AB0009E00002080B582B000AF0346FB71FB7929
:101AC000002B02D0012B04D007E0084B084A9A658E
:101AD00009E0064B074A9A6505E0074840F20461B1
:101AE000FEF70CFC00BF0837BD4680BD00300E403D
:101AF00077402057372110B79829000080B584B06F
:101B000000AF0346FB710B46BB7113467B71FFF7B9
:101B10005BFE0346FB72FB7A032B10D82E4BD3F8E7
:101B20007C31FB60FB79002B05D0FB6803F47F431D
:101B30001B0AFB6031E0FB68DBB2FB602DE0264B4B
:101B4000D3F88031FB60BB79032B1FD801A252F878
:101B500023F000BF651B00006D1B0000791B000017
:101B6000851B0000FB68DBB2FB6016E0FB6803F43A
:101B70007F431B0AFB6010E0FB6803F47F031B0C30
:101B8000FB600AE0FB681B0EFB6006E0134840F2B6
:101B90004E61FEF7B3FB00231AE07B79002B16D1D0
:101BA000FB681B03FB60FB6823F47043002B06D02B
:101BB0000A4840F25B61FEF7A1FB002308E00849F8
:101BC000074BDB6E23F47042FB681343CB660123A3
:101BD00018461037BD4680BDB081E00F982900003F
:101BE00000300E4080B588B000AFF860B960114693
:101BF0001A460B46FB711346BB710023FB610023A1
:101C0000BB61BB791A02FB7913437B617B6940F2AC
:101C1000011293422BD0B3F5817F07D2012B19D04B
:101C2000012B4BD3B3F5807F55D07BE040F20122EE
:101C3000934229D040F20122934203D8B3F5007FAA
:101C400056D06FE0B3F5407F5FD040F2013293424F
:101C500027D067E03B4BD3F87431FB61FB6903F499
:101C60007F431B0ABB61FB69DBB2FB6160E0354B64
:101C7000D3F87431FB61FB691B0EBB61FB6903F494
:101C80007F031B0CFB6153E02E4BD3F87831FB61D3
:101C9000FB6903F47F431B0ABB61FB69DBB2FB6199
:101CA00046E0284BD3F87831FB61FB691B0EBB6122
:101CB000FB6903F47F031B0CFB6139E0214BD3F874
:101CC0006C31FB61FB6903F47F431B0ABB61FB6959
:101CD000DBB2FB612CE01B4BD3F86C31FB61FB6981
:101CE0001B0EBB61FB6903F47F031B0CFB611FE050
:101CF000144BD3F87031FB61FB6903F47F431B0A7B
:101D0000BB61FB69DBB2FB6112E00E4BD3F87031B3
:101D1000FB61FB691B0EBB61FB6903F47F031B0CBA
:101D2000FB6105E008484FF4DA61FEF7E7FA00BF0F
:101D3000FB68FA691A60BB68BA691A602037BD4649
:101D400080BD00BFB081E00F9829000080B584B04D
:101D500000AF0346FB711C4B1B6C03F00303FB60DD
:101D6000FB68DBB2FA799A4200D12AE000BF164B39
:101D70009B6F03F00103002BF9D1FB79002B14BFFB
:101D800001230023DBB211480D211A46FFF7F0FCB6
:101D9000FB68DBB2002B05D1FB79012B02D10C4B88
:101DA00002221A7000BF084B9B6F03F00103002B47
:101DB000F9D10549044B1B6C23F00302FB79134353
:101DC0000B641037BD4680BD00300E4054300E40CD
:101DD0009800002080B584B000AF78605D4B02228F
:101DE0009A635C4B9B6B03F00F03022B06D05A489F
:101DF00040F25C71FEF782FA0023A7E0FFF7F0FCE7
:101E00007B681B89C82B04D9534840F26671FEF7E2
:101E100075FA7B689A887B681B899A4204D94E4878
:101E200040F26771FEF76AFA7B689B891BB2C82B88
:101E300004DD49484FF4ED61FEF760FA7B685B789A
:101E4000012B08D17B689B88C82B04D9424840F2FB
:101E50006D71FEF753FA7B68DB8842F21072934291
:101E600004D93D484FF4EF61FEF748FA7B68DB8800
:101E70004A2B02D80023FB6015E07B68DB88B3F5B2
:101E8000FA7F03D24FF08053FB600CE07B68DB8865
:101E900040F6C312934203D84FF00053FB6002E0B8
:101EA0004FF04053FB602B482A4BDB6C23F0405330
:101EB00023F001037A68928912B2002A01DB012122
:101EC00000E00021FA680A431343C364FFF7F0FC03
:101ED0007B681B891A467B689B891BB21046194692
:101EE000FFF7D2FD7B689A881C4B1A807B689B8821
:101EF000184600F04FF97B689B7B1846FFF7DAFD28
:101F00007B685B8818460121012200F02BF803460C
:101F100083F00103DBB2002B06D00F4840F2B7710B
:101F2000FEF7ECF9002311E07B689B7A002B14BFCD
:101F300001230023DBB20A4805211A46FFF718FCEB
:101F40007B685B781846FFF701FF012318461037BE
:101F5000BD4680BD00300E40982900009C00002046
:101F60003C300E4080B590B000AF78600B46FB70FF
:101F70001346BB700023FB6300237B6300233B629B
:101F800000237B620023BB610023FB6100233B61D4
:101F900000237B610023BB817B68B3F5E16F06D32F
:101FA0007B6840F6B832934201D8012300E0002359
:101FB00087F8333097F8333003F0010387F8333074
:101FC00097F8333083F00103DBB2002B06D06E4864
:101FD00040F2FC71FEF792F90023D0E07B68B3F584
:101FE000E16F8CBF0123002387F8323097F832303D
:101FF000002B0AD04FF4E163FB6340F6B8337B63F8
:102000007A6BFB6BD31ABB6309E04FF49663FB63F7
:102010004FF4E1637B637A6BFB6BD31ABB6397F876
:102020003230002B0CD0594BD3F86831FB61FB697F
:102030001B0E7B61FB6903F47F031B0CFB610BE050
:10204000524BD3F86831FB61FB6903F47F431B0AF1
:102050007B61FB69DBB2FB614D4BDB6C03F04053F2
:102060001B0FDBB23B733B7B07F1180007F110013C
:1020700097F83220FFF7B6FD7A68FB6BD31A7969BF
:10208000FA698A1A02FB03F2BB6BB2FBF3F37B62C1
:102090007A6AFB6913447B627A68FB6BD31A3969ED
:1020A000BA698A1A02FB03F2BB6BB2FBF3F33B6221
:1020B0003A6ABB6913443B627A6A7B699A420BD8DD
:1020C0007A6AFB699A4207D33A6A3B699A4203D813
:1020D0003A6ABB699A4206D22B4840F65101FEF794
:1020E0000DF900234BE0BB78002B12D02849284B78
:1020F000DB6D23F4FE4323F002037A6A12021A43D3
:1021000097F83230002B01D0022300E00023134364
:10211000CB65FB78002B31D03B7B97F83220104603
:1021200019460022FFF7EAFC034683F00103DBB205
:10213000002B06D0144840F66301FEF7DFF80023B9
:102140001DE03B6AFB62E723BB62BA6AFB6A93420B
:1021500028BF13463B620E490D4B5B6E23F4FF73A1
:1021600023F001033A6A52001A4397F83230002BE9
:1021700001D0012300E0002313434B6601231846DE
:102180004037BD4680BD00BF98290000B081E00FF8
:1021900000300E4080B584B000AF78600023FB6053
:1021A000344B1B6F03F00703BB60324BDB6C03F057
:1021B0000103002B15D0BB68012B12D97B68132BB0
:1021C00002D80423FB600BE07B68132B05D97B68E6
:1021D000272B02D80823FB6002E01023FB6033E0CA
:1021E00032E0244BDB6C03F00103002B15D1BB68FC
:1021F000012B12D87B68092B02D80423FB600BE06B
:102200007B68092B05D97B68132B02D80823FB6058
:1022100002E01023FB6017E016E0164BDB6C03F0C6
:102220000103002B0BD0BB68012B08D87B68272B40
:1022300002D80823FB6007E01023FB6004E00E488F
:1022400040F6BC01FEF75AF8FB68013BFB60FB68F7
:102250001A02FB681B031343FB600649054BDB6C4A
:1022600023F47F42FB681343CB64FFF779FB1037FD
:10227000BD4680BD00300E409829000080B584B076
:1022800000AF0346FB7111480021FFF787FAF860A1
:10229000FB68002B02D1FB79012B07D9FB68002BCF
:1022A00004D10B4840F6DA01FEF728F80949094B3A
:1022B0001B6F23F00702FB7913430B67064B1B8848
:1022C0001846FFF767FF1037BD4680BD4C300E4003
:1022D0009829000000300E409C00002080B584B09A
:1022E00000AF78607B68002B03D11A483E21FEF7CF
:1022F00005F8194B5B69DBB203F00F03DBB29B00FF
:10230000FB73154B1B6903F0C0039B09DAB2FB7B1F
:102310001343FB737B68FA7B9A700F4B1B69DBB22C
:1023200003F03F03DAB27B685A700B4B9B69DBB258
:1023300023F00F03FB73084BDB6903F0F0031B0969
:10234000DAB2FB7B1343FB737B68FA7B1A7010379E
:10235000BD4680BDFC290000D0FF0FE080B500AF76
:1023600000F0ECF811200421FEF722FD03200021EB
:102370000122FEF7C9FF002000210122FEF7C4FF61
:10238000012000210122FEF7BFFF042000210122CD
:10239000FEF7BAFF80BD00BF80B582B000AF7860A5
:1023A00000F0CCF811200521FEF702FD7868FEF759
:1023B00073FE022000210122FEF7A6FF002000216B
:1023C0000122FEF7A1FF012000210122FEF79CFF60
:1023D000042000210122FEF797FF0837BD4680BD8B
:1023E00080B500AF22480021FEF7AAF9214800215C
:1023F000FEF7A6F920480021FEF7A2F91F480021A8
:10240000FEF79EF91E480021FEF79AF91D480021AB
:10241000FEF796F91C480021FEF792F91B480021AF
:10242000FEF78EF91A480021FEF78AF919480021B3
:10243000FEF786F918480021FEF782F917480021B7
:10244000FEF77EF916480021FEF77AF915480021BB
:10245000FEF776F914480021FEF772F913480021BF
:10246000FEF76EF912480021FEF76AF980BD00BF41
:102470004041050000220400003204000002040074
:102480000012040000620400004204000052040034
:10249000009204000082040000720400001508008D
:1024A0000045080000550800002508000005080048
:1024B0000035080080B500AF002001210122FEF7A1
:1024C00023FF17480221FEF773FC16480021FEF790
:1024D00037F915480021FEF733F911480121FEF7BD
:1024E00067FC12480221FEF763FC11480021FEF749
:1024F00027F90E480121FEF75BFC0E480221FEF78A
:1025000057FC0D480021FEF71BF90A480121FEF790
:102510004FFC002000210122FEF7F6FE80BD00BF27
:1025200002001A0060061400000A1A0003001C00D2
:1025300070071600050020008009120080B500AF6A
:10254000FFF74EFFFFF7B6FF80BD00BF80B483B03A
:1025500000AF7860044A7B68C2F824340C37BD466B
:102560005DF8047B704700BF00A0004080B400AF5E
:10257000034BD3F81C341846BD465DF8047B704706
:1025800000A0004080B483B000AF786039607B6801
:102590003A681A620C37BD465DF8047B704700BF8D
:1025A00080B582B000AFFFF7E1FF78607868FFF791
:1025B000CDFF7B6803F04003002B02D00E4B0122BD
:1025C0001A607B6803F08003002B11D00B4B1B7843
:1025D000DBB25A1C0A4B83FB02131911D317C91A19
:1025E0000B469B000B44DB00D11ACAB2034B1A7096
:1025F0000837BD4680BD00BFA4000020A000002019
:102600006766666680B500AFFFF7CAFF80BD00BF92
:1026100080B500AFFFF7C4FF80BD00BF80B500AF3D
:1026200004480221FFF7AEFF034B1B680133024A47
:10263000136080BD00E00440A800002080B400AF1B
:10264000044BDB6C1B0EDBB21846BD465DF8047B09
:10265000704700BFB081E00F80B586B000AF4FF08B
:1026600050133B610023FB60FFF7E8FF0346FB725A
:102670003B461846FFF732FEFB7A8E2B22D81D4BC5
:10268000D3F8B0307B601B4A7B6843F00403C2F888
:10269000B03000237B610EE017483A69FB6842EADC
:1026A00003017A6913465B0013441B01034419605C
:1026B0007B6901337B617B69052BEDD90D4A7B6812
:1026C000C2F8B030FB7A8F2B07D80A4A094BDB6A75
:1026D00023F07F0343F02003D3627B78012B05D1E5
:1026E000064A064B1B6843F0040313601837BD46C7
:1026F00080BD00BF00400E4000A0004064310E408D
:1027000080B400AF034B01221A61BD465DF8047B23
:10271000704700BF00300E40B0B58EB000AF3D4BEB
:1027200007F11C04186859689A68DB680FC4002315
:102730003B76394B3C1D1D4628686968AA68EB68E2
:102740000FC42B8A238000237B6300233B63FFF7A6
:1027500083FFFFF7D5FF01237B7707F11C031846A2
:10276000FFF738FB3B1D1846FEF738FD002387F8BE
:102770002F3097F82F30062B3DD801A252F823F0C6
:102780009D270000AB270000C1270000D7270000CD
:10279000DF270000E7270000EF270000FFF7DEFD3E
:1027A0001120FEF739F87863FEE7FFF7D7FD112017
:1027B0000121FEF7FBF81948FEF72EF87863FEE7D3
:1027C000FFF7CCFD11200321FEF7F0F81348FEF7C8
:1027D00023F87863FEE71248FFF7DEFDFEE71148B5
:1027E000FFF7DAFDFEE71048FFF7D6FDFEE70F48DA
:1027F000FFF7D2FDFEE70E488C21FDF77FFD00BFFD
:102800000B489221FDF77AFD002318463837BD4664
:10281000B0BD00BF742A0000842A000050000200EE
:1028200080D5430280BA8C01405DC600C0CF6A00EB
:10283000642A000008B5074B044613B10021AFF32A
:102840000080054B1868836A03B198472046FDF75E
:102850004FFD00BF00000000FC2A000070B50E4BC9
:102860000E4CE41AA41000251E46A54204D056F8CA
:10287000253098470135F8E700F01EF8084C094B61
:10288000E41AA41000251E46A54204D056F82530AF
:1028900098470135F8E770BD7000002070000020F7
:1028A000740000207000002002440346934202D0CE
:1028B00003F8011BFAE77047F8B500BFF8BC08BC85
:1028C0009E467047F8B500BFF8BC08BC9E467047EE
:1028D000633A5C73696C69636F6E6C6162735C739D
:1028E000696D706C696369747973747564696F5C20
:1028F00076345C646576656C6F7065725C73646B6E
:10290000735C6765636B6F5F73646B5F737569742A
:10291000655C76312E305C706C6174666F726D5CD4
:10292000656D6C69625C696E635C656D5F636D7536
:102930002E680000433A2F53696C69636F6E4C61D7
:1029400062732F53696D706C696369747953747520
:1029500064696F2F76342F646576656C6F7065726D
:102960002F73646B732F6765636B6F5F73646B5F4B
:1029700073756974652F76312E302F706C617466B3
:102980006F726D2F656D6C69622F7372632F656D49
:102990005F636D752E630000433A2F53696C696362
:1029A0006F6E4C6162732F53696D706C69636974EB
:1029B0007953747564696F2F76342F646576656C0E
:1029C0006F7065722F73646B732F6765636B6F5FD6
:1029D00073646B5F73756974652F76312E302F7059
:1029E0006C6174666F726D2F656D6C69622F7372A6
:1029F000632F656D5F656D752E630000433A2F533D
:102A0000696C69636F6E4C6162732F53696D706C92
:102A1000696369747953747564696F2F76342F64B0
:102A20006576656C6F7065722F73646B732F676565
:102A3000636B6F5F73646B5F73756974652F763159
:102A40002E302F706C6174666F726D2F656D6C69BE
:102A5000622F7372632F656D5F73797374656D2E6A
:102A6000630000002E2E2F7372632F6D61696E2E2E
:102A7000630000000001080705000A00C8002000EC
:102A8000FFFF000001000000A00055010A2007061A
:102A9000020A04070000000000000000000000001F
:102AA0000000000000000000000000000000000026
:102AB0000000000000000000000000000000000016
:102AC0000000000000000000000000000000000006
:102AD00000000000000000000000000000000000F6
:102AE00000000000000000000000000000000000E6
:102AF0000000000000000000430000001000002063
:042B000000000000D1
:082B040020D6FF7F0100000054
:102B0C00005A620200800000C0EA2101C0EA2101E3
:102B1C0000000000982A0000B82A0000D82A000003
:102B2C000000000000000000000000000000000099
:102B3C00F82A000000000000000000000000000067
:102B4C000000000000000000000000000000000079
:102B5C000000000000000000000000000000000069
:102B6C000000000000000000000000000000000059
:0C2B7C00ED000000C90000000000000097
:04000003000001995F
:00000001FF
