:020000040000FA
:1000000002007E85A74E12006C12007612011D12AE
:10001000010A12012412003A120060854EA722C084
:10002000D075D000C00775A72030C809AF928F9255
:1000300030C9FDC2C9D007D0D032AFA775A720758F
:1000400094437596FF75956143C810D2DC8FA72243
:10005000010C00010A00010B000108010109000068
:10006000E4F5A875A71043F301F5A722E4F5A775F9
:0A00700097DE7597AD2275D4FF22CC
:10007B0002001F787FE4F6D8FD75814E0200C502A1
:10008B000114E493A3F8E493A34003F68001F20870
:10009B00DFF48029E493A3F85407240CC8C333C4BA
:1000AB00540F4420C8834004F456800146F6DFE425
:1000BB00800B0102040810204080900050E47E0168
:1000CB009360BCA3FF543F30E509541FFEE493A398
:1000DB0060010ECF54C025E060A840B8E493A3FAAA
:1000EB00E493A3F8E493A3C8C582C8CAC583CAF036
:1000FB00A3C8C582C8CAC583CADFE9DEE780BEE4F0
:10010B00F5A675A72075CC0E22120003D2AFD2C96B
:0D011B0080FE75A58075D57F2275E3412219
:00000001FF
